{
  "abi": [
    {
      "inputs": [
        {
          "internalType": "uint256",
          "name": "x",
          "type": "uint256"
        },
        {
          "internalType": "uint256",
          "name": "y",
          "type": "uint256"
        }
      ],
      "name": "addAssembly",
      "outputs": [
        {
          "internalType": "uint256",
          "name": "",
          "type": "uint256"
        }
      ],
      "stateMutability": "pure",
      "type": "function"
    }
  ],
  "bytecode": {
    "object": "0x608060405234801561001057600080fd5b5060b78061001f6000396000f3fe6080604052348015600f57600080fd5b506004361060285760003560e01c806308bb111414602d575b600080fd5b603c60383660046060565b604e565b60405190815260200160405180910390f35b60008183018060405152506020604051f35b60008060408385031215607257600080fd5b5050803592602090910135915056fea2646970667358221220596ebff4d4aec037e9437e5b86ef3d7eac66f137c0ba1f0b11247c5ae3b7aee564736f6c63430008130033",
    "linkReferences": {}
  },
  "methodIdentifiers": {
    "addAssembly(uint256,uint256)": "08bb1114"
  },
  "id": 8
}