{
  "abi": [
    {
      "inputs": [
        {
          "internalType": "uint256",
          "name": "x",
          "type": "uint256"
        },
        {
          "internalType": "uint256",
          "name": "y",
          "type": "uint256"
        }
      ],
      "name": "subtract",
      "outputs": [
        {
          "internalType": "uint256",
          "name": "",
          "type": "uint256"
        }
      ],
      "stateMutability": "pure",
      "type": "function"
    }
  ],
  "bytecode": {
    "object": "0x608060405234801561001057600080fd5b5060c48061001f6000396000f3fe6080604052348015600f57600080fd5b506004361060285760003560e01c80633ef5e44514602d575b600080fd5b603c6038366004606d565b604e565b60405190815260200160405180910390f35b60008183108015605f576020604051f35b828403604051526020604051f35b60008060408385031215607f57600080fd5b5050803592602090910135915056fea2646970667358221220a53b1f622831496186e58a56b9991119cf727fccea4a516a36cdb8f9da31f0c964736f6c63430008130033",
    "linkReferences": {}
  },
  "methodIdentifiers": {
    "subtract(uint256,uint256)": "3ef5e445"
  },
  "id": 0
}