{
  "abi": [
    {
      "inputs": [
        {
          "internalType": "uint256[]",
          "name": "arr",
          "type": "uint256[]"
        },
        {
          "internalType": "uint256",
          "name": "index",
          "type": "uint256"
        }
      ],
      "name": "deleteIndexMemory",
      "outputs": [
        {
          "internalType": "uint256[]",
          "name": "",
          "type": "uint256[]"
        }
      ],
      "stateMutability": "pure",
      "type": "function"
    }
  ],
  "bytecode": {
    "object": "0x608060405234801561001057600080fd5b50610311806100206000396000f3fe608060405234801561001057600080fd5b506004361061002b5760003560e01c8063a069c97314610030575b600080fd5b61004361003e3660046101ae565b610059565b6040516100509190610229565b60405180910390f35b60608282106100ae5760405162461bcd60e51b815260206004820152601260248201527f496e646578204f7574206f662052616e67650000000000000000000000000000604482015260640160405180910390fd5b60006100bb600185610283565b67ffffffffffffffff8111156100d3576100d361029c565b6040519080825280602002602001820160405280156100fc578160200160208202803683370190505b50905060005b838110156101485785858281811061011c5761011c6102b2565b90506020020135828281518110610135576101356102b2565b6020908102919091010152600101610102565b50825b610156600186610283565b8110156101a557858561016a8360016102c8565b818110610179576101796102b2565b90506020020135828281518110610192576101926102b2565b602090810291909101015260010161014b565b50949350505050565b6000806000604084860312156101c357600080fd5b833567ffffffffffffffff808211156101db57600080fd5b818601915086601f8301126101ef57600080fd5b8135818111156101fe57600080fd5b8760208260051b850101111561021357600080fd5b6020928301989097509590910135949350505050565b6020808252825182820181905260009190848201906040850190845b8181101561026157835183529284019291840191600101610245565b50909695505050505050565b634e487b7160e01b600052601160045260246000fd5b818103818111156102965761029661026d565b92915050565b634e487b7160e01b600052604160045260246000fd5b634e487b7160e01b600052603260045260246000fd5b808201808211156102965761029661026d56fea2646970667358221220624c5fd0c1d8fccd1591c0b4bb664ad3e5cee8a7f24ffa0c52cbc56296e40da364736f6c63430008130033",
    "linkReferences": {}
  },
  "methodIdentifiers": {
    "deleteIndexMemory(uint256[],uint256)": "a069c973"
  },
  "id": 0
}