{
  "abi": [
    {
      "inputs": [],
      "name": "beValue",
      "outputs": [
        {
          "internalType": "uint256",
          "name": "",
          "type": "uint256"
        }
      ],
      "stateMutability": "view",
      "type": "function"
    },
    {
      "inputs": [],
      "name": "deValue",
      "outputs": [
        {
          "internalType": "uint256",
          "name": "",
          "type": "uint256"
        }
      ],
      "stateMutability": "view",
      "type": "function"
    },
    {
      "inputs": [
        {
          "internalType": "bool",
          "name": "beFlag",
          "type": "bool"
        }
      ],
      "name": "shift_sol",
      "outputs": [],
      "stateMutability": "nonpayable",
      "type": "function"
    },
    {
      "inputs": [
        {
          "internalType": "bool",
          "name": "beFlag",
          "type": "bool"
        }
      ],
      "name": "shift_yul",
      "outputs": [],
      "stateMutability": "nonpayable",
      "type": "function"
    }
  ],
  "bytecode": {
    "object": "0x60806040527fbe86b90413bc283403c892d6bdb54f30233f23ab35439700123a1960ccf7664e6000557fde86b90413bc283403c892d6bdb54f30233f23ab35439700123a1960ccf7664e60015534801561005857600080fd5b506101c8806100686000396000f3fe608060405234801561001057600080fd5b506004361061004c5760003560e01c80631c8b232b146100515780633d33da5f146100665780638675bbf0146100795780638f9132d714610094575b600080fd5b61006461005f366004610169565b61009d565b005b610064610074366004610169565b6100f0565b61008260005481565b60405190815260200160405180910390f35b61008260015481565b6000816100ac576001546100b0565b6000545b905060f881901c60be036100c6576004026100df565b60f881901c60de036100db57600490046100df565b5060005b816100ea5760015550565b60005550565b6000818015610106576001811461011057610116565b6001549150610116565b60005491505b508060f81c60be81146101345760de811461013f5760009150610146565b600482029150610146565b6004820491505b5081801561015b576001811461016257505050565b5060015550565b5060005550565b60006020828403121561017b57600080fd5b8135801515811461018b57600080fd5b939250505056fea2646970667358221220f37f3b59d6507e34dbf0314979fd962204aa98d8810be290875c346144a2e64164736f6c63430008130033",
    "linkReferences": {}
  },
  "methodIdentifiers": {
    "beValue()": "8675bbf0",
    "deValue()": "8f9132d7",
    "shift_sol(bool)": "1c8b232b",
    "shift_yul(bool)": "3d33da5f"
  },
  "id": 0
}