{
  "abi": [
    {
      "inputs": [],
      "name": "checkEther",
      "outputs": [
        {
          "internalType": "uint256",
          "name": "",
          "type": "uint256"
        }
      ],
      "stateMutability": "payable",
      "type": "function"
    }
  ],
  "bytecode": {
    "object": "0x6080604052348015600f57600080fd5b50607d8061001e6000396000f3fe608060405260043610601c5760003560e01c80634dac873b146021575b600080fd5b60276039565b60405190815260200160405180910390f35b600034604051526020604051f3fea26469706673582212207b44eef527dd6ebd6794aeaccf4624be96aed9882ce097b723a99482a29faf1164736f6c63430008130033",
    "linkReferences": {}
  },
  "methodIdentifiers": {
    "checkEther()": "4dac873b"
  },
  "id": 2
}