{
  "abi": [
    {
      "anonymous": false,
      "inputs": [
        {
          "indexed": false,
          "internalType": "address",
          "name": "who",
          "type": "address"
        },
        {
          "indexed": false,
          "internalType": "bytes4",
          "name": "fsig",
          "type": "bytes4"
        },
        {
          "indexed": false,
          "internalType": "bytes32",
          "name": "keysHash",
          "type": "bytes32"
        },
        {
          "indexed": false,
          "internalType": "uint256",
          "name": "slot",
          "type": "uint256"
        }
      ],
      "name": "SlotFound",
      "type": "event"
    },
    {
      "anonymous": false,
      "inputs": [
        {
          "indexed": false,
          "internalType": "address",
          "name": "who",
          "type": "address"
        },
        {
          "indexed": false,
          "internalType": "uint256",
          "name": "slot",
          "type": "uint256"
        }
      ],
      "name": "WARNING_UninitedSlot",
      "type": "event"
    },
    {
      "inputs": [
        {
          "internalType": "bytes",
          "name": "b",
          "type": "bytes"
        },
        {
          "internalType": "uint256",
          "name": "offset",
          "type": "uint256"
        }
      ],
      "name": "bytesToBytes32",
      "outputs": [
        {
          "internalType": "bytes32",
          "name": "",
          "type": "bytes32"
        }
      ],
      "stateMutability": "pure",
      "type": "function"
    }
  ],
  "bytecode": {
    "object": "0x61026661003a600b82828239805160001a60731461002d57634e487b7160e01b600052600060045260246000fd5b30600052607381538281f3fe73000000000000000000000000000000000000000030146080604052600436106100355760003560e01c8063535849391461003a575b600080fd5b61004d61004836600461010c565b61005f565b60405190815260200160405180910390f35b60008060006020855111610074578451610077565b60205b905060005b818110156100ea5761008f8160086101d7565b8661009a83886101ee565b815181106100aa576100aa610201565b01602001517fff0000000000000000000000000000000000000000000000000000000000000016901c9290921791806100e281610217565b91505061007c565b50909150505b92915050565b634e487b7160e01b600052604160045260246000fd5b6000806040838503121561011f57600080fd5b823567ffffffffffffffff8082111561013757600080fd5b818501915085601f83011261014b57600080fd5b81358181111561015d5761015d6100f6565b604051601f8201601f19908116603f01168101908382118183101715610185576101856100f6565b8160405282815288602084870101111561019e57600080fd5b826020860160208301376000602093820184015298969091013596505050505050565b634e487b7160e01b600052601160045260246000fd5b80820281158282048414176100f0576100f06101c1565b808201808211156100f0576100f06101c1565b634e487b7160e01b600052603260045260246000fd5b600060018201610229576102296101c1565b506001019056fea2646970667358221220bce8bdddcffeddc01ea4b4cf88a889139a1e5b1a1f928d9c56c0f2c646fbb93064736f6c63430008130033",
    "linkReferences": {}
  },
  "methodIdentifiers": {
    "bytesToBytes32(bytes,uint256)": "53584939"
  },
  "id": 10
}