{
  "abi": [
    {
      "inputs": [
        {
          "internalType": "address",
          "name": "_token",
          "type": "address"
        }
      ],
      "stateMutability": "nonpayable",
      "type": "constructor"
    },
    {
      "inputs": [],
      "name": "NotERC20Transfer",
      "type": "error"
    },
    {
      "inputs": [],
      "name": "TransferFailed",
      "type": "error"
    },
    {
      "anonymous": false,
      "inputs": [
        {
          "indexed": false,
          "internalType": "address",
          "name": "",
          "type": "address"
        },
        {
          "indexed": false,
          "internalType": "uint256",
          "name": "",
          "type": "uint256"
        }
      ],
      "name": "transferOccurred",
      "type": "event"
    },
    {
      "inputs": [
        {
          "internalType": "bytes",
          "name": "data",
          "type": "bytes"
        }
      ],
      "name": "checkCall",
      "outputs": [],
      "stateMutability": "nonpayable",
      "type": "function"
    },
    {
      "inputs": [
        {
          "internalType": "uint256",
          "name": "_amount",
          "type": "uint256"
        },
        {
          "internalType": "address",
          "name": "_receiver",
          "type": "address"
        },
        {
          "internalType": "bytes4",
          "name": "sig",
          "type": "bytes4"
        }
      ],
      "name": "query",
      "outputs": [],
      "stateMutability": "nonpayable",
      "type": "function"
    }
  ],
  "bytecode": {
    "object": "0x608060405234801561001057600080fd5b506040516104aa3803806104aa83398101604081905261002f91610054565b600080546001600160a01b0319166001600160a01b0392909216919091179055610084565b60006020828403121561006657600080fd5b81516001600160a01b038116811461007d57600080fd5b9392505050565b610417806100936000396000f3fe608060405234801561001057600080fd5b50600436106100365760003560e01c806380f394b81461003b578063dccf7b4c14610050575b600080fd5b61004e610049366004610258565b610063565b005b61004e61005e36600461030c565b610141565b600080806100738486018661034a565b60408051808201909152601981527f7472616e7366657228616464726573732c75696e743235362900000000000000602090910152919450925090506001600160e01b0319831663a9059cbb60e01b146100e057604051634dc754dd60e01b815260040160405180910390fd5b6100eb818385610141565b6040805173ffffffffffffffffffffffffffffffffffffffff84168152602081018390527fd0fe10efb6e1f68f20fc4720e684bf32e745a3e114a3473c76fb08c6e6c81398910160405180910390a15050505050565b6000805460405173ffffffffffffffffffffffffffffffffffffffff85811660248301526044820187905283921690849060640160408051601f198184030181529181526020820180517bffffffffffffffffffffffffffffffffffffffffffffffffffffffff166001600160e01b03199094169390931790925290516101c89190610389565b6000604051808303816000865af19150503d8060008114610205576040519150601f19603f3d011682016040523d82523d6000602084013e61020a565b606091505b509150915081801561023457508051158061023457508080602001905181019061023491906103b8565b610251576040516312171d8360e31b815260040160405180910390fd5b5050505050565b6000806020838503121561026b57600080fd5b823567ffffffffffffffff8082111561028357600080fd5b818501915085601f83011261029757600080fd5b8135818111156102a657600080fd5b8660208285010111156102b857600080fd5b60209290920196919550909350505050565b73ffffffffffffffffffffffffffffffffffffffff811681146102ec57600080fd5b50565b80356001600160e01b03198116811461030757600080fd5b919050565b60008060006060848603121561032157600080fd5b833592506020840135610333816102ca565b9150610341604085016102ef565b90509250925092565b60008060006060848603121561035f57600080fd5b610368846102ef565b92506020840135610378816102ca565b929592945050506040919091013590565b6000825160005b818110156103aa5760208186018101518583015201610390565b506000920191825250919050565b6000602082840312156103ca57600080fd5b815180151581146103da57600080fd5b939250505056fea264697066735822122056ced64e9e7db0ea7b8164aad6e2e498887855180eb97216216ac69b13ff6a4264736f6c63430008130033",
    "linkReferences": {}
  },
  "methodIdentifiers": {
    "checkCall(bytes)": "80f394b8",
    "query(uint256,address,bytes4)": "dccf7b4c"
  },
  "id": 7
}