{
  "abi": [
    {
      "inputs": [
        {
          "internalType": "string",
          "name": "a",
          "type": "string"
        },
        {
          "internalType": "string",
          "name": "b",
          "type": "string"
        }
      ],
      "name": "isEqual",
      "outputs": [
        {
          "internalType": "bool",
          "name": "",
          "type": "bool"
        }
      ],
      "stateMutability": "pure",
      "type": "function"
    }
  ],
  "bytecode": {
    "object": "0x608060405234801561001057600080fd5b506101ac806100206000396000f3fe608060405234801561001057600080fd5b506004361061002b5760003560e01c8063465c410514610030575b600080fd5b61004361003e3660046100fa565b610057565b604051901515815260200160405180910390f35b6040516000908490839083906100709089908590610166565b604051809103902090506000868660405161008c929190610166565b6040518091039020905082841480156100a457508082145b9998505050505050505050565b60008083601f8401126100c357600080fd5b50813567ffffffffffffffff8111156100db57600080fd5b6020830191508360208285010111156100f357600080fd5b9250929050565b6000806000806040858703121561011057600080fd5b843567ffffffffffffffff8082111561012857600080fd5b610134888389016100b1565b9096509450602087013591508082111561014d57600080fd5b5061015a878288016100b1565b95989497509550505050565b818382376000910190815291905056fea2646970667358221220aadfc43342e46913da6f1a32e3ef15c78c9a772a6544ae075258067251ff10a364736f6c63430008130033",
    "linkReferences": {}
  },
  "methodIdentifiers": {
    "isEqual(string,string)": "465c4105"
  },
  "id": 1
}