{
  "abi": [
    {
      "inputs": [],
      "stateMutability": "nonpayable",
      "type": "constructor"
    },
    {
      "anonymous": false,
      "inputs": [
        {
          "indexed": true,
          "internalType": "address",
          "name": "owner",
          "type": "address"
        },
        {
          "indexed": true,
          "internalType": "address",
          "name": "spender",
          "type": "address"
        },
        {
          "indexed": false,
          "internalType": "uint256",
          "name": "value",
          "type": "uint256"
        }
      ],
      "name": "Approval",
      "type": "event"
    },
    {
      "anonymous": false,
      "inputs": [
        {
          "indexed": true,
          "internalType": "address",
          "name": "from",
          "type": "address"
        },
        {
          "indexed": true,
          "internalType": "address",
          "name": "to",
          "type": "address"
        },
        {
          "indexed": false,
          "internalType": "uint256",
          "name": "value",
          "type": "uint256"
        }
      ],
      "name": "Transfer",
      "type": "event"
    },
    {
      "anonymous": false,
      "inputs": [],
      "name": "startPayout",
      "type": "event"
    },
    {
      "inputs": [
        {
          "internalType": "address payable",
          "name": "_player",
          "type": "address"
        }
      ],
      "name": "addPlayer",
      "outputs": [],
      "stateMutability": "payable",
      "type": "function"
    },
    {
      "inputs": [
        {
          "internalType": "address payable",
          "name": "_winner",
          "type": "address"
        }
      ],
      "name": "addWinner",
      "outputs": [],
      "stateMutability": "nonpayable",
      "type": "function"
    },
    {
      "inputs": [
        {
          "internalType": "address",
          "name": "owner",
          "type": "address"
        },
        {
          "internalType": "address",
          "name": "spender",
          "type": "address"
        }
      ],
      "name": "allowance",
      "outputs": [
        {
          "internalType": "uint256",
          "name": "",
          "type": "uint256"
        }
      ],
      "stateMutability": "view",
      "type": "function"
    },
    {
      "inputs": [
        {
          "internalType": "address",
          "name": "spender",
          "type": "address"
        },
        {
          "internalType": "uint256",
          "name": "amount",
          "type": "uint256"
        }
      ],
      "name": "approve",
      "outputs": [
        {
          "internalType": "bool",
          "name": "",
          "type": "bool"
        }
      ],
      "stateMutability": "nonpayable",
      "type": "function"
    },
    {
      "inputs": [
        {
          "internalType": "address",
          "name": "account",
          "type": "address"
        }
      ],
      "name": "balanceOf",
      "outputs": [
        {
          "internalType": "uint256",
          "name": "",
          "type": "uint256"
        }
      ],
      "stateMutability": "view",
      "type": "function"
    },
    {
      "inputs": [],
      "name": "currentPrize",
      "outputs": [
        {
          "internalType": "uint256",
          "name": "",
          "type": "uint256"
        }
      ],
      "stateMutability": "view",
      "type": "function"
    },
    {
      "inputs": [],
      "name": "decimals",
      "outputs": [
        {
          "internalType": "uint8",
          "name": "",
          "type": "uint8"
        }
      ],
      "stateMutability": "view",
      "type": "function"
    },
    {
      "inputs": [
        {
          "internalType": "address",
          "name": "spender",
          "type": "address"
        },
        {
          "internalType": "uint256",
          "name": "subtractedValue",
          "type": "uint256"
        }
      ],
      "name": "decreaseAllowance",
      "outputs": [
        {
          "internalType": "bool",
          "name": "",
          "type": "bool"
        }
      ],
      "stateMutability": "nonpayable",
      "type": "function"
    },
    {
      "inputs": [
        {
          "internalType": "address",
          "name": "spender",
          "type": "address"
        },
        {
          "internalType": "uint256",
          "name": "addedValue",
          "type": "uint256"
        }
      ],
      "name": "increaseAllowance",
      "outputs": [
        {
          "internalType": "bool",
          "name": "",
          "type": "bool"
        }
      ],
      "stateMutability": "nonpayable",
      "type": "function"
    },
    {
      "inputs": [],
      "name": "name",
      "outputs": [
        {
          "internalType": "string",
          "name": "",
          "type": "string"
        }
      ],
      "stateMutability": "view",
      "type": "function"
    },
    {
      "inputs": [],
      "name": "numberPlayers",
      "outputs": [
        {
          "internalType": "uint256",
          "name": "",
          "type": "uint256"
        }
      ],
      "stateMutability": "view",
      "type": "function"
    },
    {
      "inputs": [
        {
          "internalType": "uint256",
          "name": "_amount",
          "type": "uint256"
        }
      ],
      "name": "payWinners",
      "outputs": [],
      "stateMutability": "nonpayable",
      "type": "function"
    },
    {
      "inputs": [],
      "name": "payout",
      "outputs": [],
      "stateMutability": "nonpayable",
      "type": "function"
    },
    {
      "inputs": [
        {
          "internalType": "uint256",
          "name": "",
          "type": "uint256"
        }
      ],
      "name": "players",
      "outputs": [
        {
          "internalType": "address payable",
          "name": "",
          "type": "address"
        }
      ],
      "stateMutability": "view",
      "type": "function"
    },
    {
      "inputs": [],
      "name": "symbol",
      "outputs": [
        {
          "internalType": "string",
          "name": "",
          "type": "string"
        }
      ],
      "stateMutability": "view",
      "type": "function"
    },
    {
      "inputs": [],
      "name": "totalSupply",
      "outputs": [
        {
          "internalType": "uint256",
          "name": "",
          "type": "uint256"
        }
      ],
      "stateMutability": "view",
      "type": "function"
    },
    {
      "inputs": [
        {
          "internalType": "address",
          "name": "to",
          "type": "address"
        },
        {
          "internalType": "uint256",
          "name": "amount",
          "type": "uint256"
        }
      ],
      "name": "transfer",
      "outputs": [
        {
          "internalType": "bool",
          "name": "",
          "type": "bool"
        }
      ],
      "stateMutability": "nonpayable",
      "type": "function"
    },
    {
      "inputs": [
        {
          "internalType": "address",
          "name": "from",
          "type": "address"
        },
        {
          "internalType": "address",
          "name": "to",
          "type": "address"
        },
        {
          "internalType": "uint256",
          "name": "amount",
          "type": "uint256"
        }
      ],
      "name": "transferFrom",
      "outputs": [
        {
          "internalType": "bool",
          "name": "",
          "type": "bool"
        }
      ],
      "stateMutability": "nonpayable",
      "type": "function"
    },
    {
      "inputs": [
        {
          "internalType": "uint256",
          "name": "",
          "type": "uint256"
        }
      ],
      "name": "winners",
      "outputs": [
        {
          "internalType": "address payable",
          "name": "",
          "type": "address"
        }
      ],
      "stateMutability": "view",
      "type": "function"
    }
  ],
  "bytecode": {
    "object": "0x60806040523480156200001157600080fd5b50604051806040016040528060078152602001662237b3a1b7b4b760c91b81525060405180604001604052806003815260200162444f4760e81b81525081600390816200005f91906200011c565b5060046200006e82826200011c565b505050620001e8565b634e487b7160e01b600052604160045260246000fd5b600181811c90821680620000a257607f821691505b602082108103620000c357634e487b7160e01b600052602260045260246000fd5b50919050565b601f8211156200011757600081815260208120601f850160051c81016020861015620000f25750805b601f850160051c820191505b818110156200011357828155600101620000fe565b5050505b505050565b81516001600160401b0381111562000138576200013862000077565b62000150816200014984546200008d565b84620000c9565b602080601f8311600181146200018857600084156200016f5750858301515b600019600386901b1c1916600185901b17855562000113565b600085815260208120601f198616915b82811015620001b95788860151825594840194600190910190840162000198565b5085821015620001d85787850151600019600388901b60f8161c191681555b5050505050600190811b01905550565b610d4280620001f86000396000f3fe6080604052600436106101445760003560e01c806370a08231116100c0578063a9059cbb11610074578063c42b42a011610059578063c42b42a0146103bc578063dd62ed3e146103d2578063f71d96cb1461041857600080fd5b8063a9059cbb14610389578063b1275f9a146103a957600080fd5b806395d89b41116100a557806395d89b411461031c578063a2fb117514610331578063a457c2d71461036957600080fd5b806370a08231146102c657806386e34bc1146102fc57600080fd5b8063297f407b1161011757806339509351116100fc578063395093511461027b57806349a2aaca1461029b57806363bd1d4a146102b157600080fd5b8063297f407b146101e3578063313ce5671461025f57600080fd5b806306fdde0314610149578063095ea7b31461017457806318160ddd146101a457806323b872dd146101c3575b600080fd5b34801561015557600080fd5b5061015e610438565b60405161016b9190610b12565b60405180910390f35b34801561018057600080fd5b5061019461018f366004610b75565b6104ca565b604051901515815260200161016b565b3480156101b057600080fd5b506002545b60405190815260200161016b565b3480156101cf57600080fd5b506101946101de366004610ba1565b6104e4565b3480156101ef57600080fd5b5061025d6101fe366004610be2565b600880546001810182556000919091527ff3f7a9fe364faab93b216da50a3214154f22a0a2b415b23a84c8169e8b636ee301805473ffffffffffffffffffffffffffffffffffffffff19166001600160a01b0392909216919091179055565b005b34801561026b57600080fd5b506040516012815260200161016b565b34801561028757600080fd5b50610194610296366004610b75565b610508565b3480156102a757600080fd5b506101b560065481565b3480156102bd57600080fd5b5061025d610547565b3480156102d257600080fd5b506101b56102e1366004610be2565b6001600160a01b031660009081526020819052604090205490565b34801561030857600080fd5b5061025d610317366004610c06565b610570565b34801561032857600080fd5b5061015e6105d6565b34801561033d57600080fd5b5061035161034c366004610c06565b6105e5565b6040516001600160a01b03909116815260200161016b565b34801561037557600080fd5b50610194610384366004610b75565b61060f565b34801561039557600080fd5b506101946103a4366004610b75565b6106be565b61025d6103b7366004610be2565b6106cc565b3480156103c857600080fd5b506101b560055481565b3480156103de57600080fd5b506101b56103ed366004610c1f565b6001600160a01b03918216600090815260016020908152604080832093909416825291909152205490565b34801561042457600080fd5b50610351610433366004610c06565b610779565b60606003805461044790610c58565b80601f016020809104026020016040519081016040528092919081815260200182805461047390610c58565b80156104c05780601f10610495576101008083540402835291602001916104c0565b820191906000526020600020905b8154815290600101906020018083116104a357829003601f168201915b5050505050905090565b6000336104d8818585610789565b60019150505b92915050565b6000336104f28582856108ad565b6104fd85858561093f565b506001949350505050565b3360008181526001602090815260408083206001600160a01b03871684529091528120549091906104d89082908690610542908790610ca8565b610789565b4760640361056e5760085460009061056190606490610cbb565b905061056c81610570565b505b565b60005b60085481116105d2576008818154811061058f5761058f610cdd565b60009182526020822001546040516001600160a01b039091169184156108fc02918591818181858888f193505050505080806105ca90610cf3565b915050610573565b5050565b60606004805461044790610c58565b600881815481106105f557600080fd5b6000918252602090912001546001600160a01b0316905081565b3360008181526001602090815260408083206001600160a01b0387168452909152812054909190838110156106b15760405162461bcd60e51b815260206004820152602560248201527f45524332303a2064656372656173656420616c6c6f77616e63652062656c6f7760448201527f207a65726f00000000000000000000000000000000000000000000000000000060648201526084015b60405180910390fd5b6104fd8286868403610789565b6000336104d881858561093f565b3460010361072d57600780546001810182556000919091527fa66cc928b5edb82af9bd49922954155ab7b0942694bea4ce44661d9a8736c68801805473ffffffffffffffffffffffffffffffffffffffff19166001600160a01b0383161790555b6006805490600061073d83610cf3565b919050555060c8600654111561056c576040517fd8e8545d90a0fc949f9fa79975953750d664b3eb37074e23a481d15736e7727a90600090a150565b600781815481106105f557600080fd5b6001600160a01b0383166107eb5760405162461bcd60e51b8152602060048201526024808201527f45524332303a20617070726f76652066726f6d20746865207a65726f206164646044820152637265737360e01b60648201526084016106a8565b6001600160a01b03821661084c5760405162461bcd60e51b815260206004820152602260248201527f45524332303a20617070726f766520746f20746865207a65726f206164647265604482015261737360f01b60648201526084016106a8565b6001600160a01b0383811660008181526001602090815260408083209487168084529482529182902085905590518481527f8c5be1e5ebec7d5bd14f71427d1e84f3dd0314c0f7b2291e5b200ac8c7c3b925910160405180910390a3505050565b6001600160a01b038381166000908152600160209081526040808320938616835292905220546000198114610939578181101561092c5760405162461bcd60e51b815260206004820152601d60248201527f45524332303a20696e73756666696369656e7420616c6c6f77616e636500000060448201526064016106a8565b6109398484848403610789565b50505050565b6001600160a01b0383166109bb5760405162461bcd60e51b815260206004820152602560248201527f45524332303a207472616e736665722066726f6d20746865207a65726f20616460448201527f647265737300000000000000000000000000000000000000000000000000000060648201526084016106a8565b6001600160a01b038216610a1d5760405162461bcd60e51b815260206004820152602360248201527f45524332303a207472616e7366657220746f20746865207a65726f206164647260448201526265737360e81b60648201526084016106a8565b6001600160a01b03831660009081526020819052604090205481811015610aac5760405162461bcd60e51b815260206004820152602660248201527f45524332303a207472616e7366657220616d6f756e742065786365656473206260448201527f616c616e6365000000000000000000000000000000000000000000000000000060648201526084016106a8565b6001600160a01b03848116600081815260208181526040808320878703905593871680835291849020805487019055925185815290927fddf252ad1be2c89b69c2b068fc378daa952ba7f163c4a11628f55a4df523b3ef910160405180910390a3610939565b600060208083528351808285015260005b81811015610b3f57858101830151858201604001528201610b23565b506000604082860101526040601f19601f8301168501019250505092915050565b6001600160a01b038116811461056c57600080fd5b60008060408385031215610b8857600080fd5b8235610b9381610b60565b946020939093013593505050565b600080600060608486031215610bb657600080fd5b8335610bc181610b60565b92506020840135610bd181610b60565b929592945050506040919091013590565b600060208284031215610bf457600080fd5b8135610bff81610b60565b9392505050565b600060208284031215610c1857600080fd5b5035919050565b60008060408385031215610c3257600080fd5b8235610c3d81610b60565b91506020830135610c4d81610b60565b809150509250929050565b600181811c90821680610c6c57607f821691505b602082108103610c8c57634e487b7160e01b600052602260045260246000fd5b50919050565b634e487b7160e01b600052601160045260246000fd5b808201808211156104de576104de610c92565b600082610cd857634e487b7160e01b600052601260045260246000fd5b500490565b634e487b7160e01b600052603260045260246000fd5b600060018201610d0557610d05610c92565b506001019056fea2646970667358221220d043051563f7cacc873c5a8e5d59805845b7d8a9eb04e1a9ec637d26479b378964736f6c63430008130033",
    "linkReferences": {}
  },
  "methodIdentifiers": {
    "addPlayer(address)": "b1275f9a",
    "addWinner(address)": "297f407b",
    "allowance(address,address)": "dd62ed3e",
    "approve(address,uint256)": "095ea7b3",
    "balanceOf(address)": "70a08231",
    "currentPrize()": "c42b42a0",
    "decimals()": "313ce567",
    "decreaseAllowance(address,uint256)": "a457c2d7",
    "increaseAllowance(address,uint256)": "39509351",
    "name()": "06fdde03",
    "numberPlayers()": "49a2aaca",
    "payWinners(uint256)": "86e34bc1",
    "payout()": "63bd1d4a",
    "players(uint256)": "f71d96cb",
    "symbol()": "95d89b41",
    "totalSupply()": "18160ddd",
    "transfer(address,uint256)": "a9059cbb",
    "transferFrom(address,address,uint256)": "23b872dd",
    "winners(uint256)": "a2fb1175"
  },
  "id": 11
}