{
  "abi": [
    {
      "inputs": [],
      "name": "AllowanceOverflow",
      "type": "error"
    },
    {
      "inputs": [],
      "name": "AllowanceUnderflow",
      "type": "error"
    },
    {
      "inputs": [],
      "name": "InsufficientAllowance",
      "type": "error"
    },
    {
      "inputs": [],
      "name": "InsufficientBalance",
      "type": "error"
    },
    {
      "inputs": [],
      "name": "InvalidPermit",
      "type": "error"
    },
    {
      "inputs": [],
      "name": "NewOwnerIsZeroAddress",
      "type": "error"
    },
    {
      "inputs": [],
      "name": "NoHandoverRequest",
      "type": "error"
    },
    {
      "inputs": [],
      "name": "PermitExpired",
      "type": "error"
    },
    {
      "inputs": [],
      "name": "TotalSupplyOverflow",
      "type": "error"
    },
    {
      "inputs": [],
      "name": "Unauthorized",
      "type": "error"
    },
    {
      "anonymous": false,
      "inputs": [
        {
          "indexed": true,
          "internalType": "address",
          "name": "owner",
          "type": "address"
        },
        {
          "indexed": true,
          "internalType": "address",
          "name": "spender",
          "type": "address"
        },
        {
          "indexed": false,
          "internalType": "uint256",
          "name": "amount",
          "type": "uint256"
        }
      ],
      "name": "Approval",
      "type": "event"
    },
    {
      "anonymous": false,
      "inputs": [
        {
          "indexed": true,
          "internalType": "address",
          "name": "pendingOwner",
          "type": "address"
        }
      ],
      "name": "OwnershipHandoverCanceled",
      "type": "event"
    },
    {
      "anonymous": false,
      "inputs": [
        {
          "indexed": true,
          "internalType": "address",
          "name": "pendingOwner",
          "type": "address"
        }
      ],
      "name": "OwnershipHandoverRequested",
      "type": "event"
    },
    {
      "anonymous": false,
      "inputs": [
        {
          "indexed": true,
          "internalType": "address",
          "name": "oldOwner",
          "type": "address"
        },
        {
          "indexed": true,
          "internalType": "address",
          "name": "newOwner",
          "type": "address"
        }
      ],
      "name": "OwnershipTransferred",
      "type": "event"
    },
    {
      "anonymous": false,
      "inputs": [
        {
          "indexed": true,
          "internalType": "address",
          "name": "from",
          "type": "address"
        },
        {
          "indexed": true,
          "internalType": "address",
          "name": "to",
          "type": "address"
        },
        {
          "indexed": false,
          "internalType": "uint256",
          "name": "amount",
          "type": "uint256"
        }
      ],
      "name": "Transfer",
      "type": "event"
    },
    {
      "inputs": [],
      "name": "DOMAIN_SEPARATOR",
      "outputs": [
        {
          "internalType": "bytes32",
          "name": "result",
          "type": "bytes32"
        }
      ],
      "stateMutability": "view",
      "type": "function"
    },
    {
      "inputs": [],
      "name": "activate",
      "outputs": [],
      "stateMutability": "payable",
      "type": "function"
    },
    {
      "inputs": [
        {
          "internalType": "address",
          "name": "owner",
          "type": "address"
        },
        {
          "internalType": "address",
          "name": "spender",
          "type": "address"
        }
      ],
      "name": "allowance",
      "outputs": [
        {
          "internalType": "uint256",
          "name": "result",
          "type": "uint256"
        }
      ],
      "stateMutability": "view",
      "type": "function"
    },
    {
      "inputs": [
        {
          "internalType": "address",
          "name": "spender",
          "type": "address"
        },
        {
          "internalType": "uint256",
          "name": "amount",
          "type": "uint256"
        }
      ],
      "name": "approve",
      "outputs": [
        {
          "internalType": "bool",
          "name": "",
          "type": "bool"
        }
      ],
      "stateMutability": "nonpayable",
      "type": "function"
    },
    {
      "inputs": [
        {
          "internalType": "address",
          "name": "owner",
          "type": "address"
        }
      ],
      "name": "balanceOf",
      "outputs": [
        {
          "internalType": "uint256",
          "name": "result",
          "type": "uint256"
        }
      ],
      "stateMutability": "view",
      "type": "function"
    },
    {
      "inputs": [],
      "name": "cancelOwnershipHandover",
      "outputs": [],
      "stateMutability": "payable",
      "type": "function"
    },
    {
      "inputs": [
        {
          "internalType": "address",
          "name": "pendingOwner",
          "type": "address"
        }
      ],
      "name": "completeOwnershipHandover",
      "outputs": [],
      "stateMutability": "payable",
      "type": "function"
    },
    {
      "inputs": [],
      "name": "decimals",
      "outputs": [
        {
          "internalType": "uint8",
          "name": "",
          "type": "uint8"
        }
      ],
      "stateMutability": "view",
      "type": "function"
    },
    {
      "inputs": [
        {
          "internalType": "address",
          "name": "spender",
          "type": "address"
        },
        {
          "internalType": "uint256",
          "name": "difference",
          "type": "uint256"
        }
      ],
      "name": "decreaseAllowance",
      "outputs": [
        {
          "internalType": "bool",
          "name": "",
          "type": "bool"
        }
      ],
      "stateMutability": "nonpayable",
      "type": "function"
    },
    {
      "inputs": [
        {
          "internalType": "address",
          "name": "owner",
          "type": "address"
        },
        {
          "internalType": "address",
          "name": "spender",
          "type": "address"
        },
        {
          "internalType": "uint256",
          "name": "amount",
          "type": "uint256"
        }
      ],
      "name": "directSpendAllowance",
      "outputs": [],
      "stateMutability": "nonpayable",
      "type": "function"
    },
    {
      "inputs": [
        {
          "internalType": "address",
          "name": "from",
          "type": "address"
        },
        {
          "internalType": "address",
          "name": "to",
          "type": "address"
        },
        {
          "internalType": "uint256",
          "name": "amount",
          "type": "uint256"
        }
      ],
      "name": "directTransfer",
      "outputs": [],
      "stateMutability": "nonpayable",
      "type": "function"
    },
    {
      "inputs": [
        {
          "internalType": "address",
          "name": "spender",
          "type": "address"
        },
        {
          "internalType": "uint256",
          "name": "difference",
          "type": "uint256"
        }
      ],
      "name": "increaseAllowance",
      "outputs": [
        {
          "internalType": "bool",
          "name": "",
          "type": "bool"
        }
      ],
      "stateMutability": "nonpayable",
      "type": "function"
    },
    {
      "inputs": [],
      "name": "minable",
      "outputs": [
        {
          "internalType": "bool",
          "name": "",
          "type": "bool"
        }
      ],
      "stateMutability": "view",
      "type": "function"
    },
    {
      "inputs": [
        {
          "internalType": "address",
          "name": "miner",
          "type": "address"
        },
        {
          "internalType": "uint256",
          "name": "value",
          "type": "uint256"
        }
      ],
      "name": "mintSupplyFromMinedLP",
      "outputs": [],
      "stateMutability": "payable",
      "type": "function"
    },
    {
      "inputs": [],
      "name": "name",
      "outputs": [
        {
          "internalType": "string",
          "name": "",
          "type": "string"
        }
      ],
      "stateMutability": "view",
      "type": "function"
    },
    {
      "inputs": [
        {
          "internalType": "address",
          "name": "owner",
          "type": "address"
        }
      ],
      "name": "nonces",
      "outputs": [
        {
          "internalType": "uint256",
          "name": "result",
          "type": "uint256"
        }
      ],
      "stateMutability": "view",
      "type": "function"
    },
    {
      "inputs": [],
      "name": "owner",
      "outputs": [
        {
          "internalType": "address",
          "name": "result",
          "type": "address"
        }
      ],
      "stateMutability": "view",
      "type": "function"
    },
    {
      "inputs": [
        {
          "internalType": "address",
          "name": "pendingOwner",
          "type": "address"
        }
      ],
      "name": "ownershipHandoverExpiresAt",
      "outputs": [
        {
          "internalType": "uint256",
          "name": "result",
          "type": "uint256"
        }
      ],
      "stateMutability": "view",
      "type": "function"
    },
    {
      "inputs": [
        {
          "internalType": "address",
          "name": "owner",
          "type": "address"
        },
        {
          "internalType": "address",
          "name": "spender",
          "type": "address"
        },
        {
          "internalType": "uint256",
          "name": "value",
          "type": "uint256"
        },
        {
          "internalType": "uint256",
          "name": "deadline",
          "type": "uint256"
        },
        {
          "internalType": "uint8",
          "name": "v",
          "type": "uint8"
        },
        {
          "internalType": "bytes32",
          "name": "r",
          "type": "bytes32"
        },
        {
          "internalType": "bytes32",
          "name": "s",
          "type": "bytes32"
        }
      ],
      "name": "permit",
      "outputs": [],
      "stateMutability": "nonpayable",
      "type": "function"
    },
    {
      "inputs": [],
      "name": "renounceOwnership",
      "outputs": [],
      "stateMutability": "payable",
      "type": "function"
    },
    {
      "inputs": [],
      "name": "requestOwnershipHandover",
      "outputs": [],
      "stateMutability": "payable",
      "type": "function"
    },
    {
      "inputs": [],
      "name": "symbol",
      "outputs": [
        {
          "internalType": "string",
          "name": "",
          "type": "string"
        }
      ],
      "stateMutability": "view",
      "type": "function"
    },
    {
      "inputs": [],
      "name": "totalSupply",
      "outputs": [
        {
          "internalType": "uint256",
          "name": "result",
          "type": "uint256"
        }
      ],
      "stateMutability": "view",
      "type": "function"
    },
    {
      "inputs": [
        {
          "internalType": "address",
          "name": "to",
          "type": "address"
        },
        {
          "internalType": "uint256",
          "name": "amount",
          "type": "uint256"
        }
      ],
      "name": "transfer",
      "outputs": [
        {
          "internalType": "bool",
          "name": "",
          "type": "bool"
        }
      ],
      "stateMutability": "nonpayable",
      "type": "function"
    },
    {
      "inputs": [
        {
          "internalType": "address",
          "name": "from",
          "type": "address"
        },
        {
          "internalType": "address",
          "name": "to",
          "type": "address"
        },
        {
          "internalType": "uint256",
          "name": "amount",
          "type": "uint256"
        }
      ],
      "name": "transferFrom",
      "outputs": [
        {
          "internalType": "bool",
          "name": "",
          "type": "bool"
        }
      ],
      "stateMutability": "nonpayable",
      "type": "function"
    },
    {
      "inputs": [
        {
          "internalType": "address",
          "name": "newOwner",
          "type": "address"
        }
      ],
      "name": "transferOwnership",
      "outputs": [],
      "stateMutability": "payable",
      "type": "function"
    }
  ],
  "bytecode": {
    "object": "0x6000805460ff1916905560c060405260066080908152650a0dedcc860f60d31b60a05260019062000031908262000135565b506040805180820190915260048152630a09c88b60e31b60208201526002906200005c908262000135565b506003805460ff191660121790556d14bddab3e51a57cff87a500000006004553480156200008957600080fd5b5062000201565b634e487b7160e01b600052604160045260246000fd5b600181811c90821680620000bb57607f821691505b602082108103620000dc57634e487b7160e01b600052602260045260246000fd5b50919050565b601f8211156200013057600081815260208120601f850160051c810160208610156200010b5750805b601f850160051c820191505b818110156200012c5782815560010162000117565b5050505b505050565b81516001600160401b0381111562000151576200015162000090565b6200016981620001628454620000a6565b84620000e2565b602080601f831160018114620001a15760008415620001885750858301515b600019600386901b1c1916600185901b1785556200012c565b600085815260208120601f198616915b82811015620001d257888601518255948401946001909101908401620001b1565b5085821015620001f15787850151600019600388901b60f8161c191681555b5050505050600190811b01905550565b6110a980620002116000396000f3fe6080604052600436106101a15760003560e01c8063791879ef116100e1578063d30ed3b31161008a578063f04e283e11610064578063f04e283e1461044b578063f2fde38b1461045e578063f83d179114610471578063fee81cf41461049157600080fd5b8063d30ed3b3146103d5578063d505accf146103f5578063dd62ed3e1461041557600080fd5b806395d89b41116100bb57806395d89b4114610380578063a457c2d714610395578063a9059cbb146103b557600080fd5b8063791879ef146103075780637ecebe00146103215780638da5cb5b1461035457600080fd5b8063313ce5671161014e5780635372b2f6116101285780635372b2f6146102b157806354d1f13d146102c457806370a08231146102cc578063715018a6146102ff57600080fd5b8063313ce5671461025a5780633644e5151461027c578063395093511461029157600080fd5b806318160ddd1161017f57806318160ddd1461020b57806323b872dd14610232578063256929621461025257600080fd5b806306fdde03146101a6578063095ea7b3146101d15780630f15f4c014610201575b600080fd5b3480156101b257600080fd5b506101bb6104c4565b6040516101c89190610e87565b60405180910390f35b3480156101dd57600080fd5b506101f16101ec366004610ef1565b610556565b60405190151581526020016101c8565b6102096105aa565b005b34801561021757600080fd5b506805345cdf77eb68f44c545b6040519081526020016101c8565b34801561023e57600080fd5b506101f161024d366004610f1b565b610646565b61020961066b565b34801561026657600080fd5b5060035460405160ff90911681526020016101c8565b34801561028857600080fd5b506102246106bb565b34801561029d57600080fd5b506101f16102ac366004610ef1565b610731565b6102096102bf366004610ef1565b61074c565b61020961085e565b3480156102d857600080fd5b506102246102e7366004610f57565b6387a211a2600c908152600091909152602090205490565b61020961089a565b34801561031357600080fd5b506000546101f19060ff1681565b34801561032d57600080fd5b5061022461033c366004610f57565b6338377508600c908152600091909152602090205490565b34801561036057600080fd5b50638b78c6d819546040516001600160a01b0390911681526020016101c8565b34801561038c57600080fd5b506101bb6108ac565b3480156103a157600080fd5b506101f16103b0366004610ef1565b6108bb565b3480156103c157600080fd5b506101f16103d0366004610ef1565b6108cf565b3480156103e157600080fd5b506102096103f0366004610f1b565b6108e3565b34801561040157600080fd5b50610209610410366004610f72565b610903565b34801561042157600080fd5b50610224610430366004610fe5565b602052637f5e9f20600c908152600091909152603490205490565b610209610459366004610f57565b610a42565b61020961046c366004610f57565b610a82565b34801561047d57600080fd5b5061020961048c366004610f1b565b610aa9565b34801561049d57600080fd5b506102246104ac366004610f57565b63389a75e1600c908152600091909152602090205490565b6060600180546104d390611018565b80601f01602080910402602001604051908101604052809291908181526020018280546104ff90611018565b801561054c5780601f106105215761010080835404028352916020019161054c565b820191906000526020600020905b81548152906001019060200180831161052f57829003601f168201915b5050505050905090565b600082602052637f5e9f20600c5233600052816034600c205581600052602c5160601c337f8c5be1e5ebec7d5bd14f71427d1e84f3dd0314c0f7b2291e5b200ac8c7c3b92560206000a35060015b92915050565b60005460ff16156105ec5760405162461bcd60e51b81526020600482015260076024820152661253959053125160ca1b60448201526064015b60405180910390fd5b600580547fffffffffffffffffffffffff000000000000000000000000000000000000000016339081179091556000805460ff191660011790556106449061063390610ac4565b6a01a784379d99db42000000610ad3565b565b600061066361065485610ac4565b61065d85610ac4565b84610b52565b949350505050565b60006202a30067ffffffffffffffff164201905063389a75e1600c5233600052806020600c2055337fdbf36a107da19e49527a7176a1babf963b4b0ff8cde35ee35d6cd8f1f9ac7e1d600080a250565b60405160006106c86104c4565b80516020918201207f8b73c3c69bb8fe3d512ecc4cf759cc79239f7b179b0ffacaa9a75d522b39400f845290830152507fc89efdaa54c0f20c7adf612882df0950f5a951637e0307cdcb4c672f298b8bc6604082015246606082015230608082015260a0902090565b600061074561073f84610ac4565b83610c10565b9392505050565b60005460ff16151560011461078d5760405162461bcd60e51b81526020600482015260076024820152661253959053125160ca1b60448201526064016105e3565b6005546001600160a01b031633146107d15760405162461bcd60e51b81526020600482015260076024820152661253959053125160ca1b60448201526064016105e3565b60006107e46805345cdf77eb68f44c5490565b905060006107f28383611052565b90506004548111156108465760405162461bcd60e51b815260206004820152600b60248201527f45584345454453204d415800000000000000000000000000000000000000000060448201526064016105e3565b61085861085285610ac4565b84610ad3565b50505050565b63389a75e1600c523360005260006020600c2055337ffa7b8eab7da67f412cc9575ed43464468f9bfbae89d1675917346ca6d8fe3c92600080a2565b6108a2610c82565b6106446000610c9d565b6060600280546104d390611018565b60006107456108c984610ac4565b83610cdb565b60006107456108dd84610ac4565b83610d4e565b6108fe6108ef84610ac4565b6108f884610ac4565b83610dc9565b505050565b600061090d6106bb565b90506040518542111561092857631a15a3cc6000526004601cfd5b8860601b60601c98508760601b60601c97506338377508600c52886000526020600c2080546001810182557f6e71edae12b1b97f4d1f60370fef10105fa2faae0126114a169c64845d6126c983528a602084015289604084015288606084015280608084015250508560a08201526119016000528160205260c081206040526042601e206000528460ff1660205283604052826060526020806080600060015afa50883d51146109e05763ddafbaef6000526004601cfd5b777f5e9f20000000000000000000000000000000000000000088176040526034602c2087905587897f8c5be1e5ebec7d5bd14f71427d1e84f3dd0314c0f7b2291e5b200ac8c7c3b925602060608501a360405250506000606052505050505050565b610a4a610c82565b63389a75e1600c52806000526020600c208054421115610a7257636f5e88186000526004601cfd5b60009055610a7f81610c9d565b50565b610a8a610c82565b8060601b610aa057637448fbae6000526004601cfd5b610a7f81610c9d565b6108fe610ab584610ac4565b610abe84610ac4565b83610e0c565b60005a60a01b82179050919050565b6805345cdf77eb68f44c5481810181811015610af75763e5cfe9576000526004601cfd5b806805345cdf77eb68f44c5550506387a211a2600c52816000526020600c208181540181555080602052600c5160601c60007fddf252ad1be2c89b69c2b068fc378daa952ba7f163c4a11628f55a4df523b3ef602080a35050565b60008360601b33602052637f5e9f208117600c526034600c2080546000198114610b925780851115610b8c576313be252b6000526004601cfd5b84810382555b50506387a211a28117600c526020600c20805480851115610bbb5763f4d678b86000526004601cfd5b84810382555050836000526020600c208381540181555082602052600c5160601c8160601c7fddf252ad1be2c89b69c2b068fc378daa952ba7f163c4a11628f55a4df523b3ef602080a3505060019392505050565b600082602052637f5e9f20600c52336000526034600c20805483810181811015610c425763f90670666000526004601cfd5b80835580600052505050602c5160601c337f8c5be1e5ebec7d5bd14f71427d1e84f3dd0314c0f7b2291e5b200ac8c7c3b92560206000a350600192915050565b638b78c6d819543314610644576382b429006000526004601cfd5b638b78c6d81980546001600160a01b039092169182907f8be0079c531659141344cd1fd0a4f28419497f9722a3daafe3b4186f6b6457e0600080a355565b600082602052637f5e9f20600c52336000526034600c20805483811015610d0a57638301ab386000526004601cfd5b8381039050808255806000525050602c5160601c337f8c5be1e5ebec7d5bd14f71427d1e84f3dd0314c0f7b2291e5b200ac8c7c3b92560206000a350600192915050565b60006387a211a2600c52336000526020600c20805480841115610d795763f4d678b86000526004601cfd5b83810382555050826000526020600c208281540181555081602052600c5160601c337fddf252ad1be2c89b69c2b068fc378daa952ba7f163c4a11628f55a4df523b3ef602080a350600192915050565b81602052637f5e9f20600c52826000526034600c2080546000198114610e055780831115610dff576313be252b6000526004601cfd5b82810382555b5050505050565b8260601b6387a211a28117600c526020600c20805480841115610e375763f4d678b86000526004601cfd5b83810382555050826000526020600c208281540181555081602052600c5160601c8160601c7fddf252ad1be2c89b69c2b068fc378daa952ba7f163c4a11628f55a4df523b3ef602080a350505050565b600060208083528351808285015260005b81811015610eb457858101830151858201604001528201610e98565b506000604082860101526040601f19601f8301168501019250505092915050565b80356001600160a01b0381168114610eec57600080fd5b919050565b60008060408385031215610f0457600080fd5b610f0d83610ed5565b946020939093013593505050565b600080600060608486031215610f3057600080fd5b610f3984610ed5565b9250610f4760208501610ed5565b9150604084013590509250925092565b600060208284031215610f6957600080fd5b61074582610ed5565b600080600080600080600060e0888a031215610f8d57600080fd5b610f9688610ed5565b9650610fa460208901610ed5565b95506040880135945060608801359350608088013560ff81168114610fc857600080fd5b9699959850939692959460a0840135945060c09093013592915050565b60008060408385031215610ff857600080fd5b61100183610ed5565b915061100f60208401610ed5565b90509250929050565b600181811c9082168061102c57607f821691505b60208210810361104c57634e487b7160e01b600052602260045260246000fd5b50919050565b808201808211156105a457634e487b7160e01b600052601160045260246000fdfea2646970667358221220af17adfb79019b88657a99255ed170355a04a2dbfad670395080a2c0a27ffffd64736f6c63430008130033",
    "linkReferences": {}
  },
  "methodIdentifiers": {
    "DOMAIN_SEPARATOR()": "3644e515",
    "activate()": "0f15f4c0",
    "allowance(address,address)": "dd62ed3e",
    "approve(address,uint256)": "095ea7b3",
    "balanceOf(address)": "70a08231",
    "cancelOwnershipHandover()": "54d1f13d",
    "completeOwnershipHandover(address)": "f04e283e",
    "decimals()": "313ce567",
    "decreaseAllowance(address,uint256)": "a457c2d7",
    "directSpendAllowance(address,address,uint256)": "d30ed3b3",
    "directTransfer(address,address,uint256)": "f83d1791",
    "increaseAllowance(address,uint256)": "39509351",
    "minable()": "791879ef",
    "mintSupplyFromMinedLP(address,uint256)": "5372b2f6",
    "name()": "06fdde03",
    "nonces(address)": "7ecebe00",
    "owner()": "8da5cb5b",
    "ownershipHandoverExpiresAt(address)": "fee81cf4",
    "permit(address,address,uint256,uint256,uint8,bytes32,bytes32)": "d505accf",
    "renounceOwnership()": "715018a6",
    "requestOwnershipHandover()": "25692962",
    "symbol()": "95d89b41",
    "totalSupply()": "18160ddd",
    "transfer(address,uint256)": "a9059cbb",
    "transferFrom(address,address,uint256)": "23b872dd",
    "transferOwnership(address)": "f2fde38b"
  },
  "id": 4
}