{
  "abi": [
    {
      "inputs": [],
      "name": "callValue",
      "outputs": [
        {
          "internalType": "uint256",
          "name": "",
          "type": "uint256"
        }
      ],
      "stateMutability": "payable",
      "type": "function"
    }
  ],
  "bytecode": {
    "object": "0x6080604052348015600f57600080fd5b50607d8061001e6000396000f3fe608060405260043610601c5760003560e01c8063d62457f6146021575b600080fd5b60276039565b60405190815260200160405180910390f35b600034604051526020604051f3fea26469706673582212202b32505864bee8c131f82c0349ef09de61ed2e2ea699d2ca27f0b4f86b9408f564736f6c63430008130033",
    "linkReferences": {}
  },
  "methodIdentifiers": {
    "callValue()": "d62457f6"
  },
  "id": 0
}