{
  "abi": [
    {
      "inputs": [
        {
          "internalType": "uint256",
          "name": "numerator",
          "type": "uint256"
        },
        {
          "internalType": "uint256",
          "name": "denominator",
          "type": "uint256"
        }
      ],
      "name": "div1",
      "outputs": [
        {
          "internalType": "uint256",
          "name": "result",
          "type": "uint256"
        }
      ],
      "stateMutability": "pure",
      "type": "function"
    },
    {
      "inputs": [
        {
          "internalType": "uint256",
          "name": "numerator",
          "type": "uint256"
        },
        {
          "internalType": "uint256",
          "name": "denominator",
          "type": "uint256"
        }
      ],
      "name": "div2",
      "outputs": [
        {
          "internalType": "uint256",
          "name": "result",
          "type": "uint256"
        }
      ],
      "stateMutability": "pure",
      "type": "function"
    }
  ],
  "bytecode": {
    "object": "0x608060405234801561001057600080fd5b5060ed8061001f6000396000f3fe6080604052348015600f57600080fd5b506004361060325760003560e01c80630cfbf7b514603757806355b12efc146059575b600080fd5b604760423660046075565b900490565b60405190815260200160405180910390f35b604760643660046075565b6000606e82846096565b9392505050565b60008060408385031215608757600080fd5b50508035926020909101359150565b60008260b257634e487b7160e01b600052601260045260246000fd5b50049056fea2646970667358221220c3893049fb36fff50e01ce44adbac86455b142769a0bedc28098976965813ae764736f6c63430008130033",
    "linkReferences": {}
  },
  "methodIdentifiers": {
    "div1(uint256,uint256)": "55b12efc",
    "div2(uint256,uint256)": "0cfbf7b5"
  },
  "id": 4
}